:020000040800F2
:10000000780600208901000891010008930100088A
:100010009501000897010008990100080000000000
:100020000000000000000000000000009B0100082C
:100030009D010008000000009F0100084504000821
:10004000A3010008A3010008A3010008A301000800
:10005000A3010008A3010008A3010008A3010008F0
:10006000A3010008A3010008A3010008A3010008E0
:10007000A3010008A3010008A3010008A3010008D0
:10008000A3010008A3010008A3010008A3010008C0
:10009000A3010008A3010008A3010008A3010008B0
:1000A000A3010008A3010008A3010008A3010008A0
:1000B000A3010008A3010008A3010008A301000890
:1000C000A3010008A3010008A3010008A301000880
:1000D000A3010008A3010008A3010008A301000870
:1000E000A3010008A3010008A301000800F002F822
:1000F00000F03AF80AA090E8000C82448344AAF188
:100100000107DA4501D100F02FF8AFF2090EBAE885
:100110000F0013F0010F18BFFB1A43F0010318473B
:100120002804000048040000103A24BF78C878C1B1
:10013000FAD8520724BF30C830C144BF04680C60ED
:10014000704700000023002400250026103A28BF35
:1001500078C1FBD8520728BF30C148BF0B60704739
:100160001FB51FBD10B510BD00F031F81146FFF7E7
:10017000F7FF00F0ADF900F04FF803B4FFF7F2FF1E
:1001800003BC00F057F800000948804709480047C1
:10019000FEE7FEE7FEE7FEE7FEE7FEE7FEE7FEE737
:1001A000FEE7FEE704480549054A064B7047000094
:1001B0005D040008ED0000087800002078060020AB
:1001C000780200207802002070477047704775461B
:1001D00000F02CF8AE4605006946534620F00700B3
:1001E000854618B020B5FFF7DDFFBDE820404FF091
:1001F00000064FF000074FF000084FF0000B21F011
:100200000701AC46ACE8C009ACE8C009ACE8C009DD
:10021000ACE8C0098D46704710B50446AFF30080C6
:100220002046BDE81040FFF7A8BF00000048704717
:100230001800002001491820ABBEFEE7260002008E
:10024000704700002748806940F00D00254988610B
:100250002548006820F4803023490860084600687B
:1002600040F4003008600846006820F480200860F0
:100270000846006820F4002008600846006820F066
:10028000805008600846006840F00050086008464A
:10029000006820F0804008600846006820F00040B8
:1002A00008601248006820F4803010490860084651
:1002B000006840F4003008600846006820F48020A0
:1002C00008600846006820F400200860084840687C
:1002D00020F0E060064948600846406840F0007041
:1002E000486070470010024004080140000C0140C3
:1002F0000000014010B500F001F810BD0CB5002061
:10030000019000903348006840F480303149086023
:1003100000BF3048006800F4003000900198401C95
:100320000190009818B90198B0F5A06FF1D1294853
:10033000006800F4003010B10120009001E00020BE
:1003400000900098012843D12348006840F0100035
:10035000214908600846006820F007000860084648
:10036000006840F0020008601A4840681949486077
:100370000846406848600846406840F4806048602D
:100380000846406820F47C1048600846406840F405
:10039000E81048600846006840F08070086000BFC0
:1003A0000C48006800F000700028F9D00948406847
:1003B00020F00300074948600846406840F002000A
:1003C000486000BF0348406800F00C000828F9D1DD
:1003D0000CBD000000100240002002400146002039
:1003E0001EE0C0F1070301229A400A4032B1134ACD
:1003F000126842F48052114B1A6005E00F4A1268ED
:1004000042F080520D4B1A600D4A126842F0100201
:100410000B4B1A601A46126842F480121A60401C94
:100420000828DEDB0548006840F40040034A1060FD
:100430001046006840F0004010607047100801400E
:10044000100C014004480088002804DD02480088A0
:10045000401E0149088070470200002010B5134873
:10046000006840F0010011490860084640681049E2
:1004700008400E494860084600680E4908400B498C
:1004800008600846006820F480200860084640683C
:1004900020F4FE0048604FF41F008860FFF72AFF39
:1004A0004FF000600449086010BD000000100240D9
:1004B0000000FFF8FFFFF6FE08ED00E003490880AA
:1004C00000BF024909880029FBD1704702000020C3
:1004D000FFF7B8FE194800684FF47A72B0FBF2F1EA
:1004E000481EB0F1807F00D31BE0481E4FF0E02291
:1004F000506150170F22002804DB13071D0E104B0C
:100500001D5406E013071E0E0E4B00F00F052D1FA5
:100510005E5500BF00204FF0E0229061072010617F
:1005200000BF002408E02146621C94B2C8B2FFF765
:1005300055FF6420FFF7C2FFF5E70000040000202C
:1005400000E400E018ED00E068050008000000206D
:10055000180000002801000880050008180000208D
:1005600060060000440100080000000000A24A04E8
:100570000000000000000000010203040607080953
:04000005080000ED02
:00000001FF
