:020000040800F2
:100000008006002091010008990100089B0100086A
:100010009D0100089F010008A101000800000000E8
:10002000000000000000000000000000A301000824
:10003000A501000800000000A7010008AD060008A7
:10004000AB010008AB010008AB010008AB010008E0
:10005000AB010008AB010008AB010008AB010008D0
:10006000AB010008AB010008AB010008AB010008C0
:10007000AB010008AB010008AB010008AB010008B0
:10008000AB010008AB010008AB010008AB010008A0
:10009000AB010008AB010008AB010008AB01000890
:1000A000AB010008AB010008AB010008AB01000880
:1000B000AB010008AB010008AB010008AB01000870
:1000C000AB010008AB010008AB010008AB01000860
:1000D000AB010008AB010008AB010008AB01000850
:1000E000AB010008AB010008AB01000800F002F80A
:1000F00000F03FF80AA090E8000C82448344AAF183
:100100000107DA4501D100F034F8AFF2090EBAE880
:100110000F0013F0010F18BFFB1A43F0010318473B
:100120000007000020070000103A24BF78C878C1FB
:10013000FAD8520724BF30C830C144BF04680C60ED
:10014000704700000023002400250026103A28BF35
:1001500078C1FBD8520728BF30C148BF0B60704739
:10016000642900F08380002070471FB51FBD10B5C3
:1001700010BD00F038F91146FFF7F7FF00F0F6FA6E
:1001800000F056F903B4FFF7F2FF03BC00F05EF98C
:100190000948804709480047FEE7FEE7FEE7FEE71B
:1001A000FEE7FEE7FEE7FEE7FEE7FEE70448054957
:1001B000054A064B70470000C5060008ED00000820
:1001C00080000020800600208002002080020020A5
:1001D0000FB41CB50C0007AA009001D02044401EAB
:1001E000074B7B4469460190069800F0DCF8002C30
:1001F00003D06946002000F0E9F81CBC5DF814FB50
:10020000F10100002DE9F0410E4604460020206275
:100210002046E168884730B3252805D0D4E901217C
:100220009047206A401CF2E7E16820460027884793
:10023000050018D0A5F14100192802D820354FF447
:1002400000673246294620462760FFF789FF40B104
:10025000012804D0F61D26F007060836D8E7361D1B
:10026000D6E72846DAE7206ABDE8F0812DE9F041BB
:100270000646002410687529314616A510D0AFF344
:100280000080002802DA404213A507E031688A079F
:1002900001D512A502E0490704D511A5012401E00A
:1002A000AFF3008000210A2206F1240709E0B0FB29
:1002B000F2FCB0FBF2F302FB1C003030785418461D
:1002C000491C0028F3D123462A463046BDE8F041B8
:1002D00000F00BB8000000002D0000002B00000013
:1002E000200000007047704770472DE9F0470D4629
:1002F00099469246044600F124080168880604D510
:10030000E06921F01001216000E00120A84201DD38
:10031000471B00E00027A1697A1902EB0900081ABF
:10032000A0612078C00602D42046AFF300800026EA
:1003300008E0D4E901211AF806009047206A401C21
:10034000761C20624E45F4DB2078C0060AD5204694
:10035000AFF3008006E0D4E9012130209047206A05
:10036000401C2062381EA7F10107F4DC07E0D4E945
:10037000012118F805009047206A401C2062281EC1
:10038000A5F10105F3DC2046AFF3008020780006DC
:1003900002D50220BDE8F0870120FBE701694A1C75
:1003A00002610878704700B58FB0CDE901310021B6
:1003B000059105497944CDE9031011466846FFF7D8
:1003C00021FF0FB000BD0000E5FFFFFF0A6802F843
:1003D000010B0A607047D1E900239A4202D2531CF4
:1003E0000B6010707047754600F02CF8AE460500A3
:1003F0006946534620F00700854618B020B5FFF740
:10040000D5FEBDE820404FF000064FF000074FF04A
:1004100000084FF0000B21F00701AC46ACE8C00922
:10042000ACE8C009ACE8C009ACE8C0098D4670472B
:1004300010B50446AFF300802046BDE81040FFF73A
:10044000A1BE0000004870471C0000200149182090
:10045000ABBEFEE7260002007047000040488069FE
:1004600044F2050108433E4988613E48006820F097
:1004700001003C4908600846006840F0020008603E
:100480000846006820F0040008600846006820F074
:10049000080008600846006820F010000860084660
:1004A000006840F0200008600846006820F0400026
:1004B00008600846006820F0800008600846006870
:1004C00020F4807008600846006820F4007008601E
:1004D0000846006820F4806008600846006840F420
:1004E00000600860081F006820F44060091F086071
:1004F0000846006840F4006008600846006840F460
:10050000807008600846006820F440400860084693
:10051000006840F4804008600846006820F40050FD
:1005200008600F48C06940F400300D49C86140F6CA
:10053000A6600D490880081D008842F20C0108439E
:100540000949091D08800948406820F0E060074912
:1005500048600846406840F00070486070470000FE
:10056000001002400408014008440040000001401F
:1005700000201349096841F00071114A11601146C9
:10058000096841F400711160002113E00C4A083A37
:100590001268C2F380228A400243D0B2084A12682D
:1005A00042F48072064B1A601A46126842F080725A
:1005B0001A60491C0829E9DBC143C8B27047000032
:1005C0001008014010B500F001F810BD0CB5002076
:1005D000019000903348006840F480303149086051
:1005E00000BF3048006800F4003000900198401CC3
:1005F0000190009818B90198B0F5A06FF1D1294881
:10060000006800F4003010B10120009001E00020EB
:1006100000900098012843D12348006840F0100062
:10062000214908600846006820F007000860084675
:10063000006840F0020008601A48406819494860A4
:100640000846406848600846406840F4806048605A
:100650000846406820F47C1048600846406840F432
:10066000E81048600846006840F08070086000BFED
:100670000C48006800F000700028F9D00948406874
:1006800020F00300074948600846406840F0020037
:10069000486000BF0348406800F00C000828F9D10A
:1006A0000CBD0000001002400020024004480088F9
:1006B000002804DD02480088401E01490880704778
:1006C0000200002010B51348006840F001001149F5
:1006D000086008464068104908400E4948600846CE
:1006E00000680E4908400B4908600846006820F47D
:1006F000802008600846406820F4FE0048604FF4FF
:100700001F008860FFF75EFF4FF00060044908603B
:1007100010BD0000001002400000FFF8FFFFF6FED1
:1007200008ED00E000BF0549098801F080010029BB
:10073000F9D00249091D08807047000000440040BC
:1007400000B5024603E012F8010BFFF7EBFF10784B
:100750000028F8D100BD00000349088000BF02490D
:1007600009880029FBD170470200002086B0FFF7FE
:1007700075FE224800684FF47A72B0FBF2F1481E11
:10078000B0F1807F00D31BE0481E4FF0E0225061A3
:1007900050170F22002804DB13071C0E184B1C54A3
:1007A00006E013071D0E174B00F00F04241F1D5504
:1007B00000BF00204FF0E02290610720106100BFD1
:1007C0001AE00025FFF7D4FE054600240EE00120C4
:1007D000A040284048B1631C0BA218216846FFF7CF
:1007E000F7FC6846FFF7ACFF00BF641C082CEEDB8B
:1007F0006420FFF7B1FF00BFE3E70000080000201E
:1008000000E400E018ED00E0427574746F6E20257E
:100810006420707265737365640D0A0A000000003D
:1008200040080008000000201C000000280100080B
:100830005C0800081C000020640600004401000859
:10084000000000000000000000A24A0400000000B8
:0C08500000000000010203040607080974
:04000005080000ED02
:00000001FF
