:020000040800F2
:100000007006002089010008910100089301000892
:100010009501000897010008990100080000000000
:100020000000000000000000000000009B0100082C
:100030009D010008000000009F010008490500081C
:10004000A3010008A3010008A3010008A301000800
:10005000A3010008A3010008A3010008A3010008F0
:10006000A3010008A3010008A3010008A3010008E0
:10007000A3010008A3010008A3010008A3010008D0
:10008000A3010008A3010008A3010008A3010008C0
:10009000A3010008A3010008A3010008A3010008B0
:1000A000A3010008A3010008A3010008A3010008A0
:1000B000F1050008A3010008A3010008A30100083E
:1000C000A3010008A3010008A3010008A301000880
:1000D000A3010008A3010008A3010008A301000870
:1000E000A3010008A3010008A301000800F002F822
:1000F00000F03AF80AA090E8000C82448344AAF188
:100100000107DA4501D100F02FF8AFF2090EBAE885
:100110000F0013F0010F18BFFB1A43F0010318473B
:100120006C0A00008C0A0000103A24BF78C878C11D
:10013000FAD8520724BF30C830C144BF04680C60ED
:10014000704700000023002400250026103A28BF35
:1001500078C1FBD8520728BF30C148BF0B60704739
:100160001FB51FBD10B510BD00F031F81146FFF7E7
:10017000F7FF00F049FB00F04FF803B4FFF7F2FF80
:1001800003BC00F057F800000948804709480047C1
:10019000FEE7FEE7FEE7FEE7FEE7FEE7FEE7FEE737
:1001A000FEE7FEE704480549054A064B7047000094
:1001B00091050008ED000008700000207006002086
:1001C000700200207002002070477047704775462B
:1001D00000F02CF8AE4605006946534620F00700B3
:1001E000854618B020B5FFF7DDFFBDE820404FF091
:1001F00000064FF000074FF000084FF0000B21F011
:100200000701AC46ACE8C009ACE8C009ACE8C009DD
:10021000ACE8C0098D46704710B50446AFF30080C6
:100220002046BDE81040FFF7A8BF00000048704717
:100230001000002001491820ABBEFEE72600020096
:10024000704700002648806940F00D00244988610D
:10025000244800682449084022490860084600688C
:10026000224908431F4908600846006820490840A1
:100270001C4908601F48006820F47F001D49086081
:100280000846006840F4081008600846006820F43A
:1002900088100860081D006880B2091D08600846C3
:1002A0000068154908431349091D08600D48006896
:1002B0006FF30F000B4908600846006841F2111106
:1002C0000843084908600D48406820F0E0600B4989
:1002D00048600846406840F0007048607047000081
:1002E0000010024004080140FFFFF00F0000022050
:1002F000FFFFFEEF000C0140000011110000014063
:100300002148006840F001001F49086000BF1E48F6
:10031000006800200028FAD11B48006820F0F8008F
:1003200040F08000184908600020486000BF16486F
:10033000406800F00C000028F9D11348006820F054
:1003400080701149086000BF0F48006800F000701D
:100350000028F9D10C48006820F410200A490860F0
:1003600000BF0948006800F400300028F9D10648B1
:10037000006820F48020044908600846406A40F084
:1003800080704862704700000010024010B500F015
:100390006BF810BD3248006840F480303049086086
:1003A00000BF2F48006800200028FAD12D480068BF
:1003B00020F010002B4908600846006840F010004B
:1003C00008600846006820F00700086008460068DA
:1003D00040F0020008602248406820F0F000204908
:1003E00048600846406848600846406820F460500D
:1003F00048600846406848600846406820F4E0606D
:1004000048600846406840F480604860084640689C
:1004100020F47C1048600846406840F4E8104860CA
:100420000846006840F08070086000BF0C48006813
:1004300000F00070B0F1007FF8D10948406820F06A
:100440000300074948600846406840F002004860E1
:1004500000BF0348406800F00C000828F9D170473D
:1004600000100240002002400CB5002001900090D6
:100470003348006840F480303149086000BF30489C
:10048000006800F4003000900198401C0190009832
:1004900018B90198B0F5A06FF1D12948006800F4AF
:1004A000003010B10120009001E000200090009881
:1004B000012843D12348006840F01000214908601A
:1004C0000846006820F0070008600846006840F011
:1004D000020008601A4840681949486008464068A8
:1004E00048600846406840F48060486008464068BC
:1004F00020F47C1048600846406840F4E8104860EA
:100500000846006840F08070086000BF0C48006832
:1005100000F000700028F9D00948406820F003007E
:10052000074948600846406840F00200486000BF44
:100530000348406800F00C000828F9D10CBD000009
:1005400000100240002002400448006820B1034827
:100550000068401E01490860704700000C00002040
:100560004FF0E020406900F07F40084908434FF019
:10057000E02148610846806900F07F4088610846B4
:10058000006940F007000861704700003F19010052
:1005900010B51348006840F0010011490860084692
:1005A0004068104908400E494860084600680E49F6
:1005B00008400B4908600846006820F48020086065
:1005C0000846406820F4FE0048604FF41F00886031
:1005D000FFF7DCFE4FF000600449086010BD00002A
:1005E000001002400000FFF8FFFFF6FE08ED00E0FB
:1005F00000B54FF08040008A00F0010000287DD057
:100600004FF08040008A20F001004FF080410882C6
:1006100042480078C8B94248006820F020004049AC
:1006200008600846006840F0100008603D48006817
:1006300040F400403B4908600846006840F48050A0
:1006400008603948007800F011F934480078012832
:1006500019D13348006840F020003149086008464D
:10066000006820F0100008602E48006840F4004048
:100670002C4908600846006840F4805008602B4808
:10068000007800F0F3F825480078022819D12448B2
:10069000006840F02000224908600846006840F0E9
:1006A000100008601F48006820F400401D490860E1
:1006B0000846006840F4805008601D48007800F04B
:1006C000D5F81648007803281BD11548006840F07B
:1006D0002000134908600846006840F010000860D8
:1006E0001048006840F400400E4908600846006861
:1006F00020F4805008600F48007800E00CE000F023
:10070000B5F806480078401C04490870084600788F
:10071000032801DD0020087000BD0000000000205B
:100720000C0C01400C0801400200002003000020D6
:1007300004000020050000200F48C06940F00100BF
:100740000D49C8611C2000280DDB00BF00BF00F070
:100750001F02012191404209920002F1E022C2F8F9
:10076000001100BF00BF00BF40F60F604FF0804196
:100770000885322088857047001002404FF0E02144
:10078000896901F07F41064A11434FF0E0229161EF
:100790000449086000BF034909680029FBD170477C
:1007A0003F1901000C000020124908800A2190FB2B
:1007B000F1F201FB1201104A1170642190FBF1F279
:1007C00001FB12010A2291FBF2F10C4A11704FF465
:1007D0007A7190FBF1F201FB1201642291FBF2F1BC
:1007E000074A11704FF47A7190FBF1F1054A1170CC
:1007F00070470000080000200200002003000020D5
:100800000400002005000020FFF77AFDFFF7C2FD7D
:10081000FFF718FDFFF7A4FEFFF78EFF4FF08040B3
:10082000808940F001004FF08041888108460088AF
:1008300040F00100088015E000200B4908800BE023
:1008400009480088FFF7B0FF6420FFF797FF0648CC
:100850000088401C044908800348008842F2107157
:100860008842EDDBE8E70000060000200A282BD2D2
:10087000DFE800F0FE052B51779DC3E9FDFCC1497F
:10088000096821F48051BF4A11601146096841F49A
:10089000005111601146096841F480411160114610
:1008A000096821F400411160B749096821F4807199
:1008B000B54A11601146096821F4007111601146B2
:1008C000096821F48061116059E1AE49096841F479
:1008D0008051AC4A11601146096841F40051116021
:1008E0001146096821F4804111601146096841F4FC
:1008F00000411160A449096841F48071A24A116065
:100900001146096821F4007111601146096841F42B
:100910008061116033E19B49096841F48051994A33
:1009200011601146096841F40051116011460968CF
:1009300041F4804111601146096841F400411160A1
:100940009149096821F480718F4A11601146096844
:1009500021F4007111601146096841F48061116051
:100960000DE18849096821F48051864A11601146D9
:10097000096841F4005111601146096841F4804151
:1009800011601146096821F4004111607E4909682F
:1009900021F480717C4A11601146096841F40071AC
:1009A00011601146096841F480611160E7E0754902
:1009B000096841F48051734A11601146096821F4B5
:1009C000005111601146096841F4804111601146DF
:1009D000096841F4004111606B49096821F4807194
:1009E000694A11601146096841F4007111601146AD
:1009F000096841F480611160C1E06249096841F40D
:100A00008051604A11601146096821F4005111605B
:100A10001146096841F4804111601146096841F4AA
:100A2000004111605849096841F48071564A1160CB
:100A30001146096841F4007111601146096841F4DA
:100A4000806111609BE04F49096841F480514D4A33
:100A500011601146096841F400511160114609689E
:100A600041F4804111601146096802E03BE014E066
:100A70005FE021F4004111604349096821F480716D
:100A8000414A11601146096821F400711160114654
:100A9000096821F48061116071E03A49096841F404
:100AA0008051384A11601146096841F400511160C3
:100AB0001146096841F4804111601146096841F40A
:100AC000004111603049096841F480712E4A11607B
:100AD0001146096841F4007111601146096841F43A
:100AE000806111604BE02749096841F48051254A33
:100AF00011601146096841F40051116011460968FE
:100B000041F4804111601146096841F400411160CF
:100B10001D49096821F480711B4A1160114609685A
:100B200041F4007111601146096841F4806111605F
:100B300025E01449096841F48051124A11601146B8
:100B4000096841F4005111601146096841F480417F
:100B500011601146096841F4004111600A490968B1
:100B600041F48071084A11601146096841F400712E
:100B700011601146096821F48061116000BF00BF57
:100B8000704700000C0C01400C080140AC0B000841
:100B9000000000201000000028010008BC0B000825
:100BA0001000002060060000440100080000000062
:0C0BB00000000000000000000000000039
:04000005080000ED02
:00000001FF
