:020000040800F2
:100000000007002089010008910100089301000801
:100010009501000897010008990100080000000000
:100020000000000000000000000000009B0100082C
:100030009D010008000000009F010008A1030008C6
:10004000A3010008A3010008A3010008A301000800
:10005000A3010008A3010008A3010008A3010008F0
:10006000A3010008A3010008A3010008A3010008E0
:10007000A3010008A3010008A3010008A3010008D0
:10008000A3010008A3010008A3010008A3010008C0
:10009000A3010008A3010008A3010008A3010008B0
:1000A000A3010008A3010008A3010008A3010008A0
:1000B000A3010008A3010008A3010008A301000890
:1000C000A3010008A3010008A3010008A301000880
:1000D000A3010008A3010008A3010008A301000870
:1000E000A3010008A3010008A301000800F002F822
:1000F00000F03AF80AA090E8000C82448344AAF188
:100100000107DA4501D100F02FF8AFF2090EBAE885
:100110000F0013F0010F18BFFB1A43F0010318473B
:100120000C0500002C050000103A24BF78C878C1E7
:10013000FAD8520724BF30C830C144BF04680C60ED
:10014000704700000023002400250026103A28BF35
:1001500078C1FBD8520728BF30C148BF0B60704739
:100160001FB51FBD10B510BD00F031F81146FFF7E7
:10017000F7FF00F09FF900F04FF803B4FFF7F2FF2C
:1001800003BC00F057F800000948804709480047C1
:10019000FEE7FEE7FEE7FEE7FEE7FEE7FEE7FEE737
:1001A000FEE7FEE704480549054A064B7047000094
:1001B000E5030008ED000008000100200007002012
:1001C0000003002000030020704770477047754609
:1001D00000F02CF8AE4605006946534620F00700B3
:1001E000854618B020B5FFF7DDFFBDE820404FF091
:1001F00000064FF000074FF000084FF0000B21F011
:100200000701AC46ACE8C009ACE8C009ACE8C009DD
:10021000ACE8C0098D46704710B50446AFF30080C6
:100220002046BDE81040FFF7A8BF00000048704717
:10023000A000002001491820ABBEFEE72600020006
:10024000704700002B48006840F001002949086011
:1002500000BF2848006800F002000028F9D02548B7
:10026000406820F47010234948600846406840F414
:10027000001048600846406820F480304860084616
:10028000006840F08070086000BF1A48006800F005
:1002900000700028F9D01748406820F0F000154998
:1002A00048600846406848600846406820F4E060BE
:1002B00048600846406840F4C060486008464068AE
:1002C00020F4605048600846406840F44050486060
:1002D0000846406820F0030048600846406840F047
:1002E0000200486000BF0348406800F00C00082886
:1002F000F9D17047001002401A48806941F20401A8
:100300000843184988611848006820F07040164971
:1003100008600846006840F030400860002013493B
:1003200008800846008820F00200088008460088FF
:1003300040F0010008800846008840F00400088072
:100340000846008840F245310843084908800846BD
:10035000008840F4407008800846008840F0400063
:100360000880704700100240000801400030014042
:1003700010B50B46002109E000BF048904F0020417
:10038000002CFAD05C5C84814C1CA1B29142F3DB5E
:1003900000BF018901F080010029FAD110BD70472A
:1003A0000448006820B103480068401E0149086005
:1003B00070470000080000204FF0E020406900F086
:1003C0007F4049F63F4108444FF0E021486108462C
:1003D000806900F07F4088610846006940F00700AE
:1003E0000861704710B51348006840F001001149DA
:1003F000086008464068104908400E4948600846B1
:1004000000680E4908400B4908600846006820F45F
:10041000802008600846406820F4FE0048604FF4E1
:100420001F008860FFF7BBFF4FF0006004490860C1
:1004300010BD0000001002400000FFF8FFFFF6FEB4
:1004400008ED00E018B50020009011E00D4B009C75
:1004500003EB8403DA780B4B03EB84039978094BA5
:1004600003EB8403587800F095F80098401C009046
:1004700000982428EADB002000E0401CB428FCDBC4
:1004800018BD0000100000204FF0E021896901F044
:100490007F4149F63F4211444FF0E0229161044907
:1004A000086000BF024909680029FBD170470000BD
:1004B00008000020FFF7C6FEFFF77EFFFFF71CFFD6
:1004C000002406E000231A461946204600F050F8A2
:1004D000641C242CF6DBFFF7B5FF4FF47A70FFF7AE
:1004E000D3FF43E0002406E000231A46FF21204604
:1004F00000F03EF8641C242CF6DBFFF7A3FF4FF45A
:100500007A70FFF7C1FF002406E00023FF2219469E
:10051000204600F02DF8641C242CF6DBFFF792FF38
:100520004FF47A70FFF7B0FF002406E0FF230022AB
:100530001146204600F01CF8641C242CF6DBFFF763
:1005400081FF4FF47A70FFF79FFF002406E0FF233E
:100550001A461946204600F00BF8641C242CF6DBE2
:10056000FFF770FF4FF47A70FFF78EFFBAE70000D5
:1005700030B5074D05F8200005EB80056A70044D85
:1005800005EB8005A970024D05EB8005EB7030BDD1
:10059000100000202DE9F04186B004460D461646B5
:1005A00020480068642802DD64201E4908601D4858
:1005B00000686043642190FBF1F41A4800686843C6
:1005C00090FBF1F517480068704390FBF1F62004AA
:1005D00040EA052040EA06080027172012E028FA22
:1005E00000F101F0010131B1062339467A1C97B2BE
:1005F0000DF8013005E0042339467A1C97B20DF856
:100600000130401E0028EADA182269460648FFF742
:10061000AFFE002000E0401C5A28FCDB06B0BDE81D
:10062000F081000000000020003001404C0600086E
:100630000000002010000000280100085C060008EF
:1006400010000020F0060000440100080100000036
:0C0650000000000000000000000000009E
:04000005080000ED02
:00000001FF
