:020000040800F2
:100000008006002091010008990100089B0100086A
:100010009D0100089F010008A101000800000000E8
:10002000000000000000000000000000A301000824
:10003000A501000800000000A701000869080008E9
:10004000AB010008AB010008AB010008AB010008E0
:10005000AB010008AB010008AB010008AB010008D0
:10006000AB010008AB010008AB010008AB010008C0
:10007000AB010008AB010008AB010008AB010008B0
:10008000AB010008AB010008AB010008AB010008A0
:10009000AB010008AB010008AB010008AB01000890
:1000A000AB010008AB010008AB010008AB01000880
:1000B000AB010008AB010008AB010008AB01000870
:1000C000AB010008AB010008AB010008AB01000860
:1000D000AB010008AB010008AB010008AB01000850
:1000E000AB010008AB010008AB01000800F002F80A
:1000F00000F03FF80AA090E8000C82448344AAF183
:100100000107DA4501D100F034F8AFF2090EBAE880
:100110000F0013F0010F18BFFB1A43F0010318473B
:1001200080090000A0090000103A24BF78C878C1F7
:10013000FAD8520724BF30C830C144BF04680C60ED
:10014000704700000023002400250026103A28BF35
:1001500078C1FBD8520728BF30C148BF0B60704739
:10016000642900F07180002070471FB51FBD10B5D5
:1001700010BD00F0A6F91146FFF7F7FF00F0E6FB0F
:1001800000F0C4F903B4FFF7F2FF03BC00F0CCF9B0
:100190000948804709480047FEE7FEE7FEE7FEE71B
:1001A000FEE7FEE7FEE7FEE7FEE7FEE70448054957
:1001B000054A064B70470000B1080008ED00000832
:1001C00080000020800600208002002080020020A5
:1001D0000FB41CB5074B06AA7B44694600900598EE
:1001E00000F057F90020694600F066F91CBC5DF884
:1001F00014FB0000DD02000070B50446856900684C
:10020000C10601D5302600E02026C00707D070BD0A
:10021000D4E9012130469047206A401C20626D1EBF
:10022000F6D570BD70B5044685690078C00707D162
:1002300070BDD4E9012120209047206A401C206233
:100240006D1EF6D570BD00002DE9F0410646002474
:1002500010687529314616A510D0AFF3008000282C
:1002600002DA404213A507E031688A0701D512A5DA
:1002700002E0490704D511A5012401E0AFF3008095
:1002800000210A2206F1240709E0B0FBF2FCB0FBD2
:10029000F2F302FB1C00303078541846491C002849
:1002A000F3D123462A463046BDE8F04100F092B82B
:1002B000000000002D0000002B00000020000000C6
:1002C0002DE9F0474FF0000A89460446C0F820A007
:1002D0002046E1688847002876D0252806D0D4E952
:1002E00001219047206A401C2062F1E7E168204626
:1002F00000258847C4F81CA006460027C4F818A0AB
:100300002A2E09D0304600F003FB38B304EB8708EF
:10031000303EC8F8186019E059F8041B204604EB79
:1003200087029161E1688847012F064618D1E0698C
:10033000002820DA25F020051DE0D8F8180000EB91
:10034000800006EB40003038C8F818002046E1680D
:100350008847064600F0DCFA0028EED1012F0AD0CB
:100360002E2E08D12046E16888477F1C0646022FC2
:1003700045F02005C4DBA069002803DA404245F0BF
:100380000105A061E80701D025F01005B6B1A6F17E
:100390004100192802D8203645F400654A46314606
:1003A000204625604D46FFF7DBFE58B1012806D0F8
:1003B000ED1D25F0070000F1080989E704E005F1CB
:1003C000040985E730468AE7206ABDE8F087704770
:1003D000704770472DE9F0470D469946924604460E
:1003E00000F124080168880604D5E06921F01001B5
:1003F000216000E00120A84201DD471B00E000274A
:10040000A1697A1902EB0900081AA0612078C006D8
:1004100002D42046FFF7F0FE002608E0D4E90121CF
:100420001AF806009047206A401C761C20624E4550
:10043000F4DB2078C0060AD52046FFF7DDFE06E093
:10044000D4E9012130209047206A401C2062381EE8
:10045000A7F10107F4DC07E0D4E9012118F8050051
:100460009047206A401C2062281EA5F10105F3DC9C
:100470002046FFF7D7FE2078000602D50220BDE80F
:10048000F0870120FBE7000001694A1C026108783F
:10049000704700B58FB0CDE90131002105910549C4
:1004A0007944CDE9031011466846FFF709FF0FB004
:1004B00000BD0000E5FFFFFF0A6802F8010B0A60BB
:1004C0007047754600F02CF8AE4605006946534665
:1004D00020F00700854618B020B5FFF767FEBDE89D
:1004E00020404FF000064FF000074FF000084FF09B
:1004F000000B21F00701AC46ACE8C009ACE8C0092C
:10050000ACE8C009ACE8C0098D46704710B5044698
:10051000AFF300802046BDE81040FFF733BE000077
:10052000004870471C00002001491820ABBEFEE7C0
:10053000260002007047000001B50948006809491B
:10054000B0FBF1F00921B0FBF1F0009948430090B5
:1005500000BF0098411E00910028FAD108BD00009C
:100560000800002040420F002848806940F0090040
:10057000264988612648406840F0020024494860C6
:100580002448006820F0FF002249086008460068FF
:1005900040F0CC0008600846006840F03300086076
:1005A0001A48C06940F400101849C8611A48008808
:1005B00020F001001849088017480C38008820F006
:1005C000400015490C3908800846008820F080005A
:1005D00008800846008820F0010008802420091DBA
:1005E000088025200C4914310880B420091F088098
:1005F000012009490C3908800846008840F48060D1
:100600000880FE2004490880704700000010024066
:1006100000000140040C01400C540040038823F406
:1006200000630380038843F480630380038843F4FA
:100630008073038000BF838A03F00103002BFAD08C
:10064000838A038A23F0FF031343038200BF838A54
:1006500003F00203002BFAD0838A038B038A23F072
:10066000FF030B43038200BF838A03F08003002B48
:10067000FAD0038843F400730380704770B50446D2
:100680000D4615B1012D0FD105E044F08000002189
:1006900000F0A8F908E004F13501C9B241F080008A
:1006A000002100F09FF900BF00BF70BD70B5044687
:1006B000002505E0605D012100F094F9681CC5B2D9
:1006C000605D0028F6D170BD10B504464E2221466B
:1006D0000148FFF7A3FF10BD0054004010B53220C1
:1006E00000F01EF90020FFF7EFFF2849097821F0FC
:1006F0000201264A11700846FFF7E6FF642000F069
:100700000FF9032000F090F941F29410FFF714FF65
:10071000032000F089F941F29410FFF70DFF032048
:1007200000F082F9C820FFF707FF022000F07CF9F3
:100730000021282000F056F90021082000F052F98D
:10074000012000F0EDF80021012000F04BF902201B
:1007500000F0E6F80021062000F044F9012000F046
:10076000DFF800210C2000F03DF90021022000F00C
:1007700039F9022000F0D4F80449097841F0080161
:10078000024A11700846FFF79FFF10BD05000020C8
:100790003248006840F480303049086000BF2F487C
:1007A000006800200028FAD12D48006820F01000D1
:1007B0002B4908600846006840F0100008600846B1
:1007C000006820F0070008600846006840F002005A
:1007D00008602248406820F0F00020494860084640
:1007E000406848600846406820F460504860084609
:1007F000406848600846406820F4E0604860084669
:10080000406840F4806048600846406820F47C10EE
:1008100048600846406840F4E810486008460068B0
:1008200040F08070086000BF0C48006800F0007065
:10083000B0F1007FF8D10948406820F00300074973
:1008400048600846406840F00200486000BF034826
:10085000406800F00C000828F9D1704700100240F1
:1008600000200240704700000448006820B103489F
:100870000068401E01490860704700000000002029
:100880004FF0E020406900F07F40084908434FF0F6
:10089000E02148610846806920F07F408861084671
:1008A000006940F007000861704700003F1901002F
:1008B00010B51348006840F001001149086008466F
:1008C0004068104908400E494860084600680E49D3
:1008D00008400B4908600846006820F48020086042
:1008E0000846406820F4FE0048604FF41F0088600E
:1008F000FFF7B8FF4FF000600449086010BD00002A
:10090000001002400000FFF8FFFFF6FE08ED00E0D7
:1009100030380A2801D201207047002070470000BB
:100920004FF0E021896901F07F41064A11434FF001
:10093000E02291610449086000BF03490968002969
:10094000FBD170473F190100000000200EB5FFF7F2
:100950001FFFFFF795FFFFF707FEFFF7BFFE14A08D
:10096000FFF7A4FE01210520FFF788FE15A0FFF781
:100970009DFE4FF4FA60FFF7D3FF01210846FFF711
:100980007DFE13A0FFF792FE11E02246611C8CB29F
:1009900013A16846FFF71CFC01210020FFF76EFE43
:1009A0006846FFF783FE4FF47A70FFF7B9FFECE774
:1009B0004869214E522E656C656374726F6E69636F
:1009C00073000000537472696E67203200000000EB
:1009D0002020202020202020202020200000000097
:1009E0002535640070B504460D464DB90D490978AA
:1009F00021F001010B4A11700846FFF765FE08E07F
:100A00000849097841F00101064A11700846FFF7CC
:100A10005BFE00262611304600F006F8204600F066
:100A200003F870BD0500002038B504462007040E09
:100A30001849097841EA0400FFF746FE154909788C
:100A400041F00401134A117041EA0400FFF73CFE33
:100A5000C8200090104800681049B0FBF1F00099E0
:100A6000484342F22831B0FBF1F0009000BF00BFD4
:100A70000098411E00910028FAD100BF054909786D
:100A800021F00401034A117041EA0400FFF71CFE43
:100A900038BD0000050000200800002040420F0083
:100AA000C00A0008000000201C0000002801000807
:100AB000DC0A00081C000020640600004401000855
:100AC000000000000000000000127A00000000009A
:0C0AD000000000000102030406070809F2
:04000005080000ED02
:00000001FF
